:020000040800F2
:1000000038040020D5000008B7020008B502000837
:1000100000000000000000000000000000000000E0
:100020000000000000000000000000007104000853
:100030000000000000000000B902000805050008EB
:100040000501000805010008050100080501000878
:100050000501000805010008050100080501000868
:100060000501000805010008050100080501000858
:100070000501000805010008050100080501000848
:100080000501000805010008050100080501000838
:100090000501000805010008050100080501000828
:1000A0000501000805010008050100080501000818
:1000B0000501000805010008050100080501000808
:1000C0000348854600F09AF800480047D506000826
:1000D000380400200C4880F308880C480168090E99
:1000E0000B4A914205D10B480B4901600B480C4962
:1000F00001600C4880470C480047FEE7FEE7FEE73A
:10010000FEE7FEE7FEE700003804002004000000E0
:100110001F00000018100240010000000000014014
:100120000000000019050008C100000830B50B46AA
:10013000014600202022012409E00D46D5409D42C1
:1001400005D31D469540491B254695404019154647
:10015000521E002DF1DC30BDF0B51FB40646002064
:1001600082B005464024019100901BE0019922468F
:100170000F46304600F030F8049A059B801A9941EA
:1001800010D310461946224600F016F8361A8F4151
:100190000197224601200021009F00F00DF8381839
:1001A0004D4100902046641E0028DFDC019B009832
:1001B0002946324607B0F0BD10B5202A04DB0146BF
:1001C000203A9140002010BD914020239C1A034604
:1001D000E3401943904010BD10B5202A04DB0846C7
:1001E000203AD040002110BD0B46D340D0402024FF
:1001F000A21A91400843194610BD0000064C012583
:10020000064E05E02046E36807C82B4398471034A4
:10021000B442F7D3FFF758FF100B0008300B00086B
:10022000F0B50022032501230C6893401C409C423A
:100230002AD10C79012C01D0022C12D187685400EC
:100240002E46A640B74387604E79A6408468264371
:10025000866084889C43848084888B7993401C4387
:100260008480066853002C469C40A64306600E79A5
:1002700007689E403E430660C668A643C660CC79C8
:100280009C40C3681C43C460521C102ACBD3F0BDF1
:100290004B07DB0E9A40C90810B589000818016A9F
:1002A0000F249C40A1430162016A1143016210BD09
:1002B00001857047FEE7704770470000044A002937
:1002C000516901D0014300E0814351617047000052
:1002D00000100240044A0029916901D0014300E066
:1002E000814391617047000000100240F8B5594EFB
:1002F0000446706800210C22574D104005D0042898
:1003000003D0082803D00C281CD025601CE071689D
:100310000F208004014070680322D2038F0C10402C
:10032000BF1C00280AD0F06A0107090F491C2846A3
:10033000FFF7FCFE78430146216005E04748394657
:100340004143F9E7464820607068F0221040454B71
:1003500000091F5C20680246FA4094466260726899
:1003600007273F023A40120A9B5C6246DA40A260CD
:10037000336BDB0501D43C4B05E073685B0401D4AF
:10038000530800E09308E360336B5F06374B03D4F8
:10039000364F1237276100E02361376BFF0601D427
:1003A000656100E06061376BBF070ED0376BBF0738
:1003B000BF0F012F0BD0376BBF07BF0F022F08D025
:1003C000376BFF43BF0706D006E0A26104E0A061DF
:1003D00002E0A36100E0A561376BBF03BF0F0FD040
:1003E000376BBF03BF0F012F0CD0376BBF03BF0F9D
:1003F000022F09D0376BBF03BF0F032F06D006E0D3
:10040000E26104E0E06102E0E36100E0E561376B96
:100410003F03BF0F0FD0326B1203920F012A0CD093
:10042000306B0003800F022809D0306B0003800F6F
:10043000032806D006E0226204E0206202E0236284
:1004400000E02562306B000602D405486062F8BD0A
:100450006162F8BD0010024000127A0000093D0000
:10046000006CDC020A000020809FD50000800000A4
:10047000704700001349112008601348416841602B
:100480004168416041687F22D203914341604168E5
:100490000522D20411434160016801221206114372
:1004A000016001688901FCD54168890889004160C3
:1004B000416803221143416041680907890F0329FC
:1004C000FAD1704700200240001002400A4910B5DE
:1004D000401E884201D9012010BD084948610848E2
:1004E0000723C2691202120A4C042243C26100208F
:1004F00088610B6110BD0000FFFFFF0000E000E01D
:1005000004ED00E010B503480168491C016000F0EB
:100510004FF910BD1C00002010B5144801680122DD
:10052000114301604168124A114041600168114A5B
:100530001140016001680122920491430160416809
:100540003F22120491434160C16A09090901C16255
:10055000016BFF22543291430163416B490849000A
:10056000416300218160FFF785FF10BD001002404C
:100570000CB8FFF8FFFFF6FE0029016802D0012247
:10058000114301E049084900016070470246D26901
:1005900000200A4200D001207047000030B5044618
:1005A00000688BB00D464008400020606068032161
:1005B00009038843A9680143616020681C49EA680F
:1005C0000840696811432A69024311432160A06809
:1005D00003210902884369690143A1606846FFF766
:1005E00085FE1448844201D106980AE012488442EC
:1005F00001D1079805E01148844201D1089800E034
:10060000029821680904296800D54000FFF78EFD93
:100610002A6852088A4200D8401C2168090404D57F
:100620000107074A490F10400843A0810BB030BDB5
:10063000F3E9FFFF0038014000440040004800405B
:10064000F0FF0000C905C90D0185704702E008C828
:10065000121F08C1002AFAD170477047002001E03C
:1006600001C1121F002AFBD1704770471CB5012140
:100670008804FFF723FE0F21090301206B46009138
:1006800018710020987103225A71054CD8712046C8
:10069000FFF70EFE69462046FFF7C2FD1CBD0000B5
:1006A0000004004804280DD2094BC2009858D21803
:1006B0009288002907D0012907D0022902D1818A16
:1006C0005140818270470285704782617047000007
:1006D000F00A000810B500F073F800F007F8FFF713
:1006E000C4FF00F075F8002010BD000010B5FFF742
:1006F000BDFF00F00BF804487D21C9000068FFF73A
:1007000015FDFFF7E3FE10BD2000002030B50121EC
:1007100089B04804FFF7D2FD01218803FFF7DAFD15
:100720000921CD0601222846FFF7B2FD01220A2148
:100730002846FFF7ADFD01204002069002206A46E0
:1007400010770121517700249477D17706A92846A4
:10075000FFF766FD01208002069006A92846FFF7F4
:100760005FFDE120059440020194029403940090FF
:100770000C20064C049069462046FFF70FFF01212C
:100780002046FFF7F9FE09B030BD000000380140F7
:1007900010B5064C01462046FFF754FF8021204645
:1007A000FFF7F4FE0028F9D010BD0000003801402A
:1007B00002480178491C01707047000004000020C5
:1007C0000248002101708170818070470400002080
:1007D000144CA17820788142FBD0A070A088401CE6
:1007E00080B2A080C107F4D18107F2D44107F0D4D0
:1007F0000107EED4C106ECD48106EAD4410602D545
:1008000000F026F8E5E7010602D500F033F8E0E74E
:10081000C10502D500F040F8DBE78005D9D500F02E
:1008200003F8D6E70400002010B502210320FFF7EB
:1008300039FF0348016803A000F044F810BD000030
:100840001C000020256409090909410A0000000074
:1008500010B502210020FFF725FF0348016803A01F
:1008600000F030F810BD00001C000020256409379E
:100870000A00000010B502210120FFF713FF034812
:10088000016803A000F01EF810BD00001C0000204D
:1008900025640909380A000010B502210846FFF74F
:1008A00001FF0348016803A000F00CF810BD000030
:1008B0001C0000202564090909390A0010B5FFF75A
:1008C00067FF10BD0FB410B503A9029800F024F81B
:1008D00010BC08BC04B0184710B504460A2802D161
:1008E0000D20FFF7F9FF06480168002903D00C70BE
:1008F000491C016010BD2046FFF7E0FF10BD00005D
:100900000000002010B5044602E0641CFFF7E4FF7D
:1009100020780028F9D110BDF3B58BB004462078BB
:10092000641C002870D0252802D0FFF7D5FFF6E719
:1009300025780026641C302D02D02D2D02D004E035
:10094000012600E002262578641C0020069007E0BE
:1009500006980A2148434019303806902578641CCF
:10096000284630380928F3D96C2D01D04C2D0BD1F5
:10097000042025780643641C6C2D01D04C2D03D136
:10098000082006432578641C002D3DD02846612DA3
:1009900001D32038C0B24F2839D006DC422834D0E9
:1009A00043282BD0442806D133E0532805D05528BE
:1009B0002FD058282FD02846B7E70C98002580C89C
:1009C0000C9000E06D1C785D0028FBD102E0202037
:1009D000FFF782FFB00704D4284606996D1C8842B1
:1009E000F5D33846FFF78EFF02E02020FFF774FFB3
:1009F000284606996D1C884291D2F6E70C9802C8E9
:100A00000C90C9B2084690E76FE0022304E0082387
:100A100002E00A2300E01023310708D50C99C91D14
:100A2000CF08FF003A68796808370C9704E071072F
:100A30000C9904C90C91D117442807D1002905DA73
:100A400008460021524281411020064300270A93A4
:100A50000892099100230A9A0898FFF77DFBD0B20B
:100A6000079008A807C80023FFF776FB08900798AF
:100A70000991092807D92720782D00D00720079948
:100A80004018C0B2079030306946C8550999089897
:100A90007F1C084301D0182FDCD3F00603D52D218D
:100AA0006846C1557F1C30203D46F10700D120200B
:100AB000079002E00798FFF70FFFB00704D428461D
:100AC00006996D1C8842F5D36E467F1EF05DFFF7D8
:100AD00003FF002FF9D102E02020FFF7FDFE28469A
:100AE00006996D1C884287D2F6E70DB0F0BD000074
:100AF000000400480010000000040048002000002E
:100B0000000400480040000000040048008000008D
:100B1000300B000800000020340000004C060008E4
:100B2000640B000834000020040400005C06000888
:100B300000000000000000000000000000000102B2
:100B40000304010203040607080900000000000076
:100B5000006CDC0200000000000000000102030441
:040B60000607080973
:04000005080000C12E
:00000001FF
