:020000040800F2
:1000000020040020D5000008F3010008F1010008D9
:1000100000000000000000000000000000000000E0
:1000200000000000000000000000000011020008B5
:100030000000000000000000F5010008A502000813
:100040000501000805010008050100080501000878
:100050000501000805010008050100080501000868
:100060000501000805010008050100080501000858
:100070000501000805010008050100080501000848
:100080000501000805010008050100080501000838
:100090000501000805010008050100080501000828
:1000A0000501000805010008050100080501000818
:1000B0000501000805010008050100080501000808
:1000C0000348854600F048F80048004795030008BB
:1000D000200400200C4880F308880C480168090EB1
:1000E0000B4A914205D10B480B4901600B480C4962
:1000F00001600C4880470C480047FEE7FEE7FEE73A
:10010000FEE7FEE7FEE700002004002004000000F8
:100110001F00000018100240010000000000014014
:1001200000000000AD020008C100000830B50B4619
:10013000014600202022012409E00D46D5409D42C1
:1001400005D31D469540491B254695404019154647
:10015000521E002DF1DC30BD064C0125064E05E097
:100160002046E36807C82B4398471034B442F7D3BE
:10017000FFF7AAFF90040008B0040008F0B50022C1
:10018000032501230C6893401C409C422AD10C7922
:10019000012C01D0022C12D1876854002E46A640B3
:1001A000B74387604E79A64084682643866084887A
:1001B0009C43848084888B7993401C4384800668A8
:1001C00053002C469C40A64306600E7907689E406B
:1001D0003E430660C668A643C660CC799C40C368AF
:1001E0001C43C460521C102ACBD3F0BD018570475C
:1001F000FEE7704770470000044A0029516901D0AA
:10020000014300E08143516170470000001002404B
:10021000704700001349112008601348416841608D
:100220004168416041687F22D20391434160416847
:100230000522D204114341600168012212061143D4
:10024000016001688901FCD5416889088900416025
:10025000416802221143416041680907890F022960
:10026000FAD1704700200240001002400A4910B540
:10027000401E884201D9012010BD08494861084844
:100280000723C2691202120A4C042243C2610020F1
:1002900088610B6110BD0000FFFFFF0000E000E07F
:1002A00004ED00E010B500F08FF810BD10B5144853
:1002B00001680122114301604168124A1140416006
:1002C0000168114A114001600168012292049143C2
:1002D000016041683F22120491434160C16A0909EB
:1002E0000901C162016BFF22543291430163416BEA
:1002F00049084900416300218160FFF78BFF10BD71
:10030000001002400CB8FFF8FFFFF6FE02E008C83C
:10031000121F08C1002AFAD170477047002001E07F
:1003200001C1121F002AFBD1704770471CB5012183
:100330008804FFF761FF0F21090301206B4600913C
:1003400018710020987103225A71054CD87120460B
:10035000FFF74CFF69462046FFF710FF1CBD000069
:100360000004004804280DD2094BC2009858D21846
:100370009288002907D0012907D0022902D1818A59
:10038000514081827047028570478261704700004A
:100390007004000810B500F01FF800F007F8FFF730
:1003A000C4FF00F021F8002010BD000010B5FFF7D9
:1003B000BDFF04487D21C9000068FFF7B7FEFFF7C5
:1003C00055FF10BD0800002002480178491C01704B
:1003D0007047000000000020024800210170817079
:1003E0008180704700000020144CA1782078814261
:1003F000FBD0A070A088401C80B2A080C107F4D1BF
:100400008107F2D44107F0D40107EED4C106ECD441
:100410008106EAD4410602D500F018F8E5E70106A6
:1004200002D500F019F8E0E7C10502D500F01AF88E
:10043000DBE78005D9D500F003F8D6E700000020FF
:1004400010B502210320FFF78DFF10BD10B502216A
:100450000020FFF787FF10BD10B502210120FFF734
:1004600081FF10BD10B502210846FFF77BFF10BDCC
:1004700000040048001000000004004800200000B4
:100480000004004800400000000400480080000014
:10049000B0040008000000201C0000000C0300084D
:1004A000CC0400081C000020040400001C03000809
:1004B0000000000000000000006CDC0200000000F2
:0C04C00000000000010203040607080908
:04000005080000C12E
:00000001FF
